:020000040800F2
:10000000900C0020290200087F240008C11F00086E
:100010007D2400080B060008712C00080000000079
:100020000000000000000000000000008324000821
:10003000E106000800000000812400088524000873
:10004000430200084302000843020008430200087C
:10005000430200084302000843020008430200086C
:100060004302000843020008430200080D0600088E
:10007000430200084302000843020008430200084C
:10008000430200084302000843020008430200083C
:10009000430200084302000843020008430200082C
:1000A000430200084302000843020008430200081C
:1000B000430200084302000843020008430200080C
:1000C00043020008430200084302000843020008FC
:1000D00043020008652C00084302000843020008A0
:1000E00043020008430200084302000843020008DC
:1000F00043020008430200084302000819060008F2
:1001000043020008430200084302000843020008BB
:1001100043020008092800084302000843020008BF
:1001200043020008430200082506000843020008B5
:10013000430200084302000843020008430200088B
:10014000430200084302000843020008430200087B
:100150004302000843020008310600084302000879
:10016000430200084302000843020008430200085B
:100170004302000843020008430200080000000098
:10018000430200084302000800F002F800F03CF8C7
:100190000AA090E8000C82448344AAF10107DA45E2
:1001A00001D100F031F8AFF2090EBAE80F0013F0F8
:1001B000010F18BFFB1A43F0010318472430000059
:1001C00044300000103A24BF78C878C1FAD85207EA
:1001D00024BF30C830C144BF04680C6070470000C1
:1001E0000023002400250026103A28BF78C1FBD840
:1001F000520728BF30C148BF0B6070471FB502F0DF
:10020000D9FF1FBD10B510BD00F0C5F91146FFF7AD
:10021000F5FF02F0FDFD00F0E3F903B4FFF7F2FF94
:1002200003BC00F0EBF9000009488047094800478B
:10023000FEE7FEE7FEE7FEE7FEE7FEE7FEE7FEE796
:10024000FEE7FEE704480549054A064B70470000F3
:100250001D2500088901000890060020900C002050
:10026000900800209008002053EA020C00F06980FA
:100270002DE9F04B4FF00006002B1FBFB3FA83F5BA
:1002800003FA05F424FA05F65E4012BF1643B2FAEB
:1002900082F502FA05F4C5F120051EBF22FA05FC1D
:1002A00044EA0C04203556EA044C4FEA144418BFC3
:1002B000641C4FF000084FF00009904271EB030CF2
:1002C00039D3002919BFB1FA81F701FA07F6B0FA5C
:1002D00080F700FA07F6C7F120071EBF20FA07FCD7
:1002E00046EA0C062037B6FBF4FCA7EB0507103FE7
:1002F00007F01F0BCBF120060CFA0BFB2CFA06F6CD
:1003000044BFB3460026202FA4BF5E464FF0000B2B
:100310005BEA060C08BF4FF0010B19EB0B09ABFBB6
:10032000027C48EB0608C01B06FB02CC0BFB03CC8F
:1003300071EB0C01C1E70B46024641464846BDE859
:10034000F08B13B54FF000004FF00001AFF30080C9
:10035000BDE81C407047032A40F2308010F0030CC7
:1003600000F0158011F8013BBCF1020F624498BF08
:1003700011F801CB00F8013B38BF11F8013BA2F1A5
:10038000040298BF00F801CB38BF00F8013B11F020
:10039000030300F09180083AC0F0088051F8043B54
:1003A000083A51F804CBA0E80810F5E7121D5CBF2D
:1003B00051F8043B40F8043BAFF30080D20724BF60
:1003C00011F8013B11F801CB48BF11F8012B24BFF4
:1003D00000F8013B00F801CB48BF00F8012B704743
:1003E000431A28BF9A427FF6B6AF032A104411443D
:1003F00040F2268010F0030F1EBF11F8013D521E7F
:1004000000F8013D10F0030F7FF4F6AF11F0030385
:1004100000F09780083AC0F00B8051F8043D083A8C
:1004200051F804CD40F8043D40F804CDFFF7F3BF88
:10043000121D5CBF51F8043D40F8043DAFF300804D
:10044000D20724BF11F8013D11F801CD48BF11F8C2
:10045000012C24BF00F8013D00F801CD48BF00F891
:10046000012C70474FF0000200B5134694469646A3
:10047000203922BFA0E80C50A0E80C50B1F12001B7
:10048000BFF4F7AF090728BFA0E80C5048BF0CC065
:100490005DF804EB890028BF40F8042B08BF7047C3
:1004A00048BF20F8022B11F0804F18BF00F8012B35
:1004B000704770477047704710B5203AC0F00B8006
:1004C000B1E81850203AA0E81850B1E81850A0E858
:1004D0001850BFF4F5AF5FEA027C24BFB1E81850B2
:1004E000A0E8185044BF18C918C0BDE810405FEA22
:1004F000827C24BF51F8043B40F8043B08BF70479E
:10050000D20728BF31F8023B48BF11F8012B28BFA2
:1005100020F8023B48BF00F8012B7047431A28BF60
:100520009A427FF6C9AF104410F0030F11441EBF6A
:1005300011F8013D521E00F8013D10F0030F7FF449
:10054000F6AF103AC0F00A8010B531E91850103AF1
:1005500020E91850BFF4F9AFBDE81040530724BF9D
:1005600031E9081020E9081044BF51F8043D40F873
:10057000043D12F0030F08BF7047D20728BF31F8BF
:10058000023D48BF11F8012C28BF20F8023D48BFAA
:1005900000F8012C7047754600F02CF8AE460500B7
:1005A0006946534620F00700854618B020B5FFF78E
:1005B00049FEBDE820404FF000064FF000074FF025
:1005C00000084FF0000B21F00701AC46ACE8C00971
:1005D000ACE8C009ACE8C009ACE8C0098D4670477A
:1005E00010B50446AFF300802046BDE81040FFF789
:1005F00014BE000000487047300600200149182052
:10060000ABBEFEE7260002007047FEE7014800F09F
:1006100037B9000018020020014800F031B900008D
:1006200078020020014800F02BB90000D802002019
:10063000014800F025B900003803002001681823A4
:10064000CAB2103AB2FBF3F2054B6FF30901032A69
:100650009B5CC36500D9091D816508467047000091
:10066000BE31000810B5014600208B698A6A4FF040
:10067000C07453B1B3F5005F15D072B1012A0CD02C
:10068000022A0AD0032A09D104E01AB1012A06D0AD
:10069000022A03D1C96AC90100D5012010BDC96A67
:1006A000A142FAD010BD002AF7D0012AF2D0022AC6
:1006B000F3D0032AF3D010BD30B50468256825F4C3
:1006C00080252560046863608368402B036803D03D
:1006D00099600068C26030BD9A600068C16030BD3A
:1006E0007047000010B500211B4801F009F90421F2
:1006F000194801F005F90821174801F001F90C210A
:10070000154801F0FDF80021144801F0F9F8042122
:10071000124801F0F5F80821104801F0F1F80C2119
:100720000E4801F0EDF80C4940F2DC500A685063C5
:100730000A6890630A68D0630968086407490A6810
:1007400050630A6890630A68D06309680864BDE86A
:100750001040400000F006BA20000020F800002001
:100760009FED141ADFED140A10B540EE010A134B89
:10077000134A09281B681268BCEEE00A10EE101A32
:1007800089B207D2DFE800F0060507090B0D0F114B
:100790001300596310BD996310BDD96310BD19646E
:1007A00010BD516310BD916310BDD16310BD1164C4
:1007B00010BD00000000FA430080BB442000002070
:1007C000F800002072B6FEE72DE9F0410446876D7F
:1007D00000F0D2FA064694F835000025022806D02B
:1007E0008020606584F834500120BDE8F0812068E5
:1007F000016821F0160101602068416921F0800143
:100800004161206C08B9A06C20B12068016821F01A
:10081000080101602068016821F0010101600CE01D
:1008200000F0AAFA801B052807D920206065032064
:1008300084F8350084F83450D7E720680068C00792
:10084000EED194F85C103F208840B860012084F815
:10085000350084F834500020C7E790F8351002299D
:1008600003D08021416501207047052180F83510B3
:100870000068016821F0010101600020704700005C
:100880002DE9F84304464FF00009CDF80090634885
:100890004FF41651A56D0068B0FBF1F72E6894F87F
:1008A0005C10082000FA01F131420FD021680A687B
:1008B00052070BD50A6822F004020A6094F85C1013
:1008C0008840A860606D40F00100606594F85C109D
:1008D0004FF0010808FA01F0304208D02168496958
:1008E000090604D5A860606D40F00200606594F8C8
:1008F0005C1004208840304208D0216809688907CC
:1009000004D5A860606D40F00400606594F85C1048
:1009100010208840304218D021680968090714D592
:10092000A86020680168490304D50068000308D561
:10093000A16C07E00168C90503D4016821F0080132
:100940000160216C09B12046884794F85C10202092
:100950008840304231D021680968C9062DD5A86089
:1009600094F8350005282068016806D0490347D56A
:10097000006800031DD4616C1CE021F016010160C9
:100980002068416921F080014161206C08B9A06CA8
:1009900020B12068016821F00801016094F85C1022
:1009A0003F208840A86084F8358084F83490216D19
:1009B0001FE0E16B09B120468847606D00282BD00D
:1009C000606DC00714D0052084F8350020680168E8
:1009D00021F0010101600098401C0090B84203D84A
:1009E00020680068C007F6D184F8358084F8349018
:1009F000E16C002910D001B02046BDE8F043084763
:100A00000168C905D5D4016821F01001016084F89E
:100A1000358084F83490CCE7BDE8F8830C000020E2
:100A20002DE9F041044600F0A7F906465CB102202A
:100A300084F83500002584F834502068016821F0DE
:100A4000010101600DE00120BDE8F08100F094F9A2
:100A5000801B052805D920206065032084F8350017
:100A6000F2E720680068C007F0D1226811682048CA
:100A70000140D4E901031843D4E903363343184352
:100A800063691843A3691843E3691843236A184349
:100A90000843616A042903D1D4E90B1319430843BD
:100AA000106020684069666A20F0070130460E43F6
:100AB000012704280CD1A06A0643E06A40B1204611
:100AC000FFF7D0FD20B14020606584F83570BAE7AB
:100AD000206846612046FFF7B1FD94F85C203F2175
:100AE00091408160656584F835700020ACE70000B6
:100AF0003F8010F02DE9F0410446866D90F83400F7
:100B0000002501280DD0012084F8340094F83570B8
:100B10000020012F07D084F8340002252846BDE8C4
:100B2000F0810220FBE7022784F8357060652046DB
:100B3000FFF7C2FD94F85C103F208840B060206849
:100B4000016841F016010160206C20B12068016845
:100B500041F0080101602068016841F00101016075
:100B6000DCE7000070B5044600F006F90546601C9D
:100B700002D004480078044400F0FEF8401BA04274
:100B8000FAD370BD000000202DE9F84FDFF8BCA1BA
:100B90000022012503264FF00F090AF1040BAAF1E8
:100BA000040E00BF0B6805FA02F42340A34270D183
:100BB0000F7907F00307012F01D0022F16D18768A4
:100BC0004FEA420806FA08FC27EA0C07D1F80CC0E5
:100BD0000CFA08FC4CEA070CC0F808C04768A743A9
:100BE0000C79C4F3001494403C4344600C79E44312
:100BF000A4070AD0C4684FEA420C06FA0CF7BC43BB
:100C00008F6807FA0CF72743C7600C7904F00304D8
:100C1000022C12D1D40800EB840CDCF820405707DA
:100C2000FF0E09FA07F824EA0804D1F8108008FA40
:100C300007F848EA0408CCF8208004684FEA420C20
:100C400006FA0CF7BC430F7907F0030707FA0CF715
:100C5000274307604C6814F4403F70D03C4C276831
:100C600047F480472760246822F0030704F4804497
:100C70000094384C07EB040CDCF8084897074FEA5F
:100C8000177809FA08F7BC43334FB84202D100275E
:100C900024E054E0314FB84201D101271EE0304F2B
:100CA000B84201D1022719E02E4FB84201D10327E3
:100CB00014E02D4FB84201D104270FE02B4FB8426A
:100CC00001D105270AE02A4FB84201D1062705E0E5
:100CD000284FB84201D1072700E0082707FA08F794
:100CE0002743CCF80878DAF800405746D1F804C01A
:100CF0009C435FEACC2C00D51C433C60DBF80040F1
:100D00005F46D1F804C09C435FEA8C2C00D51C439D
:100D10003C60DEF800407746D1F804C09C435FEAAF
:100D20008C3C00D51C433C60084F083F3C68D1F820
:100D300004C09C435FEACC3C00D51C433C60521C81
:100D4000102AFFF42FAFBDE8F88F0000083C0140E7
:100D500044380240003001400000024000040240DC
:100D600000080240000C0240001002400014024043
:100D700000180240001C02400148806870470000D3
:100D800000000020024881680278114481607047A9
:100D9000000000200B4810B5016841F400710160AB
:100DA000016841F480610160016841F48071016073
:100DB000032000F06FF80F2000F006F800F024F890
:100DC000002010BD003C024070B50D4D04464FF4AC
:100DD0007A712878B1FBF0F00A490968B1FBF0F0AC
:100DE00000F00CFB48B9102C07D200222146501EFF
:100DF00000F030F800206C6070BD012070BD000074
:100E0000000000200C0000200A4808B5016841F4E9
:100E100080410160006800F4804000900548001F98
:100E2000016841F080510160006800F0805000903E
:100E300008BD000044380240002809DB00F01F0212
:100E4000012191404009800000F1E020C0F800112C
:100E500070470000F0B40E4B1B680C46C3F302232E
:100E6000C3F10705042D00D90425191D072901D256
:100E7000002300E0DB1E012606FA05F1491E214091
:100E800099409E40761E16403143F0BC01F0F1BE01
:100E90000CED00E0064900F0070208684FF6FF037A
:100EA000184040EA0220034A1043086070470000DF
:100EB0000CED00E00000FA052DE9F0470E460500B4
:100EC00065D0DFF81481D8F80000F7B200F0070011
:100ED000B04207D288F80070D8F8000000F0070090
:100EE000B04254D128683D4C810712D5400703D544
:100EF000206840F4E05020602878000703D520687F
:100F000040F4604020602068A96820F0F0000843A9
:100F100020602878C0072DD030496868083901283A
:100F200012D0022813D0032811D00968890700299C
:100F30002DDA216821F0030101432160FFF71CFF36
:100F4000814641F2883A0EE009688903EFE70968B3
:100F50008901ECE7FFF710FFA0EB0901514502D929
:100F60000320BDE8F0872068696800F00C00B0EB52
:100F7000810FEFD1D8F80010404601F00701B142CF
:100F800007D90770006800F00700B04201D00120C7
:100F9000E7E72878400705D52068E96820F4E050A5
:100FA000084320602878000706D52068296920F4C6
:100FB000604040EAC100206000F038F82168084A2B
:100FC000C1F30311515CC840064908600648006837
:100FD000FFF7FAFE0020C4E7003C02400838024058
:100FE000C63100080C000020040000200448054918
:100FF00000680968044AC1F38221515CC840704707
:101000000C00002008380240D63100080448054989
:1010100000680968044AC1F34231515CC840704716
:101020000C00002008380240D6310008154810B5E1
:10103000006810F00C02144813D01449042A0FD091
:10104000082A0ED10F4C241F2268236802F03F02A9
:101050005B0207D52068C0F38810A0FB010106E001
:10106000084610BD2168C1F38811A1FB00010023CF
:10107000FFF7FAF82168C1F30141491C4900B0FBB0
:10108000F1F010BD083802400024F40000366E0173
:101090002DE9F84F04006ED02078DFF84C93C0079C
:1010A000A9F104054AD009F104000168C1F38101E6
:1010B000012908D00068C0F3810002280AD1D9F8BC
:1010C0000000400206D52868800337D560680028F4
:1010D000E1D033E06068B0F5803F10D0B0F5A02FCC
:1010E000286810D020F480302860286820F4802000
:1010F00028606068A8B1FFF73FFE06460DE028684B
:1011000040F48030F4E740F480202860F7E700BF27
:10111000FFF732FE801B642873D828688003F7D558
:101120000CE0FFF729FE064605E000BFFFF724FEAE
:10113000801B6428F0D828688003F7D42078DFF873
:10114000AC8280074FF0000A3ED5A748001D016819
:1011500011F00C0F08D00068C0F3810002280BD1F9
:10116000D9F80000400207D42868800716D5E06847
:10117000012800D112E033E1E068B8B10120C8F8DD
:101180000000FFF7F9FD064605E000BFFFF7F4FD9C
:10119000801B0228C0D828688007F7D528682169F5
:1011A00020F0F80040EAC10028600DE0C8F800A077
:1011B000FFF7E2FD064604E0FFF7DEFD801B022894
:1011C0001FD828688007F7D42078000722D5864FDB
:1011D00087486169703771B101210160FFF7CCFD6B
:1011E000064604E0FFF7C8FD801B022809D83868CE
:1011F0008007F7D50EE0C0F800A0FFF7BDFD06465A
:1012000005E082E0FFF7B8FD801B02287DD8386832
:101210008007F7D42078400768D5DFF8CCB10027E5
:101220000BF13C0BDBF80000C0000BD4DBF8001026
:1012300041F08051CBF80010DBF80000012700F0EE
:10124000805000906B4E3068C00510D4306840F478
:1012500080703060FFF790FD009005E0FFF78CFD97
:101260000099401A022850D83068C005F6D55E4E65
:10127000A0686C3601280FD00528306810D020F007
:1012800001003060306820F004003060A068B8B120
:10129000FFF772FD00900FE0306840F00100F4E7C6
:1012A00040F004003060F7E7FFF766FD0099411A4F
:1012B00041F28830814266D830688007F4D50EE06C
:1012C000FFF75AFD009007E0FFF756FD0099411A1D
:1012D00041F28830814256D830688007F4D42FB16B
:1012E000DBF8001021F08051CBF80010A069C8B3E2
:1012F0003D49091D0968C1F3810102294AD002282C
:10130000504607D0C8F8600000E03CE0FFF734FD2D
:1013100004463BE04746C8F86000FFF72DFD06464F
:1013200005E000BFFFF728FD801B02282BD82868A6
:101330008001F7D4D4E907010843A16A2E4A49087D
:1013400002EB0141626A41EA8211084394F82C10D1
:1013500040EA0161C9F8001001203866FFF70CFD72
:10136000044606E03EE000BFFFF706FD001B022832
:1013700009D828688001F7D534E000BFFFF7FCFCEE
:10138000001B022802D90320BDE8F88F28688001DD
:10139000F4D427E00128F7D0D9F80000E26900F47E
:1013A000800191421CD1226A00F03F01914217D185
:1013B00047F6C071626A0140B1EB821F10D1A26A88
:1013C0004FF0FF3300F4403103EB5202B1EB024F18
:1013D00006D194F82C1000F07060B0EB016F01D0D2
:1013E0000120D1E70020CFE7043802400000474247
:1013F000800E4742007000400000FFFF10B5401E05
:10140000B0F1807F01D3012010BD4FF0E024606176
:101410000F21601701F02DFC0020A0610720206142
:10142000002010BD10B590F83C20012A22D00122E6
:1014300080F83C20CA688C6822F4407222434C68D1
:1014400022F4806222430C6822F4006222430C6979
:1014500022F4805222434C6922F400522243C9698B
:10146000002322F480420A4301684A6480F83C3039
:10147000002010BD022010BD70B590F83C20012A5C
:1014800032D0012480F83C40022280F83D200368DD
:101490005A689D6822F070060A6832435A60134BFE
:1014A00002689A4214D0B2F1804F11D0104B9A4288
:1014B0000ED0104B9A420BD00F4B9A4208D00F4BD4
:1014C0009A4205D00E4B9A4202D00E4B9A4204D15A
:1014D000496825F080031943916080F83D40002160
:1014E00080F83C10084670BD022070BD000001402D
:1014F0000004004000080040000C004000040140CF
:10150000004001400018004010B5040003D094F8DA
:101510003D0010B107E0012010BD002084F83C0020
:10152000204600F01FF8022084F83D00211D2068AD
:1015300000F0FCFF012084F8460084F83E0084F8A7
:101540003F0084F8400084F8410084F8420084F8A9
:10155000430084F8440084F8450084F83D000020EE
:1015600010BD000008B501681448814201D114483B
:1015700010E01348001FB1F1804F0BD0114A914287
:1015800010D1016841F002010160006800F0020022
:10159000009008BD016841F001010160006800F0A1
:1015A0000100F5E7084A9142F3D1016841F00801D2
:1015B0000160006800F00800EAE700000000014058
:1015C0004438024000040040000C004070B504465E
:1015D00090F83C000025012817D0012684F83C60D3
:1015E000022084F83D002068826822F0770222F40D
:1015F0007F4282600868502838D00DDC20284FD008
:1016000005DC90B3102811D14AE0022070BD3028CB
:1016100046D040280AD13BE060282FD070280DD05A
:10162000B0F5805F03D0B0F5005F12D0012584F8DB
:101630003D60002084F83C00284670BDCB68D1E9AD
:101640000121206800F0E7FF2068816841F0770100
:1016500009E0CB68D1E90121206800F0DCFF2068B7
:10166000816841F480418160E1E719E0CA68496816
:10167000206801F0A5F85021206806E0CA68496892
:10168000206801F0AEF86021206800F0CEFFCEE7C0
:10169000CA684968206801F093F840212068F4E79F
:1016A000226801461046F0E770B586B00446142162
:1016B0006846FEF7D7FE354A2168002434480225E3
:1016C000012691420FD1016841F0100101600068CC
:1016D000694600F0100005904FF4D4400090CDE929
:1016E00001542C4836E0B1F1804F12D02A4A914281
:1016F00036D1016841F0040101600068694600F0DC
:10170000040005904FF470700090CDE90154234817
:1017100038E0016841F001010160016801F0010158
:101720000591016841F0020101600068694600F01E
:10173000020005904FF400400090CDE90154CDE93E
:1017400003461748FFF720FA08200090CDE901541E
:1017500014486946CDE90346FFF716FA06B070BD96
:10176000114A9142FAD1016841F008010160006814
:10177000694600F0080005904FF470400090CDE9F4
:1017800001540A48CDE90345E6E7000000000140A6
:1017900030380240001002400004004000080240BF
:1017A000000002400004024000080040000C02401B
:1017B00070B5044690F83C0000260D4601280FD075
:1017C000012084F83C006AB1042A1DD0082A2FD0D9
:1017D0000C2A3FD00126002084F83C00304670BD22
:1017E000022070BD206800F029FF2068816941F067
:1017F000080181612068816921F00401816120680C
:1018000081692A69114311E0206800F047FF2068D0
:10181000816941F4006181612068816921F48061FE
:101820008161206881692A6941EA02218161D2E7E8
:10183000206800F069FF2068C16941F00801C161BA
:101840002068C16921F00401C1612068C1692A6969
:10185000114311E0206800F08BFF2068C16941F45A
:101860000061C1612068C16921F48061C1612068A3
:10187000C1692A6941EA0221C161ACE710B50400DF
:1018800003D094F83D0010B107E0012010BD002006
:1018900084F83C00204600F01FF8022084F83D0048
:1018A000211D206800F042FE012084F8460084F8E3
:1018B0003E0084F83F0084F8400084F8410084F83A
:1018C000420084F8430084F8440084F8450084F81A
:1018D0003D00002010BD000008B5006806498842A0
:1018E00008D10648016841F004010160006800F079
:1018F0000400009008BD000000080040403802408D
:1019000010B50446022249B104290ED0082913D08B
:1019100094F84100012816D0012010BD94F83E0033
:101920000128F9D184F83E200FE094F83F00012807
:10193000F2D184F83F2008E094F840000128EBD170
:1019400084F8402001E084F841200122206800F062
:1019500055FE16492068164A884201D0904203D1AC
:10196000436C43F4004343642068884213D0B0F1D1
:10197000804F10D00F4988420DD00F4988420AD0BD
:101980000E49884207D0904205D00D49884202D0C6
:101990000C49884204D1816801F00701062903D06F
:1019A000016841F001010160002010BD000001400C
:1019B000000401400004004000080040000C00400A
:1019C0000040014000180040704710B50446006810
:1019D000406994F84110C0F3C010212911D180B1A1
:1019E0002068143050E8001F21F0800140E8001208
:1019F000002AF5D1A06B08B1FEF7E6FE204600F004
:101A0000B2FF2068406994F84210C0F38010222988
:101A100011D180B12068143050E8001F21F040013E
:101A200040E80012002AF5D1E06B08B1FEF7CCFEC9
:101A3000204600F071FF002010BD7047F8B5016826
:101A400004460868CA684B6910F00F0F4FF0000594
:101A500059D003F0010602F49077374365D0C107EF
:101A600005D0D10503D5616C41F0010161644107E6
:101A700005D5D90703D0616C41F00201616481078B
:101A800005D5D90703D0616C41F0040161640107F9
:101A900007D502F02001314303D0616C41F0080109
:101AA0006164616C00293AD0800604D5900602D5A5
:101AB000204600F066FF20684069616CC0F380102A
:101AC000090700D460B3204600F026FF2068406973
:101AD000400621D52068143050E8001F21F0400155
:101AE00040E80012002AF5D1E06BA8B17249016507
:101AF000E06BFEF7B2FE002811D0E06B016D01B083
:101B0000BDE8F040084783060FD593060DD5204663
:101B1000BDE8F84000F035BF2046FFF78EFFF8BD66
:101B20002046FFF78AFF6564F8BD266B2023012E4F
:101B30007ED1C6067CD5D6067AD50868486800905E
:101B400048694FF0020640064DD5E26B10684068C8
:101B50004FF480770004000C3AD0A18D814237D930
:101B6000E085D069B8422DD020680C3050E8001FC5
:101B700021F4807140E80012002AF5D12068143069
:101B800050E8001F21F0010140E80012002AF5D1C1
:101B90002068143050E8001F21F0400140E8001296
:101BA000002AF5D184F84230256320680C3050E8D3
:101BB000001F21F0100140E80012002AF5D1E06B6F
:101BC000FEF702FE6663A08DE18D401A81B206E049
:101BD000A18D8142A8D1D069B842A5D166632046C3
:101BE000FFF7F2FEF8BDA08DE18D401A81B2E08DC5
:101BF0000028F7D00029F5D020680C3050E8002FDD
:101C000022F4907240E80027002FF5D120681430AC
:101C100050E8002F22F0010240E80027002FF5D104
:101C200084F84230256320680C3050E8002F00E033
:101C300006E022F0100240E80023002BF3D1CDE7AC
:101C400005062BD5150629D594F841002128C9D1C0
:101C5000A068B0F5805F01D12069B0B1206A411C55
:101C60002162216800784860E08C401E0004000C6E
:101C7000E084B7D12068C16821F08001C16020688C
:101C8000C16841F04001C160F8BD206A0088C0F31E
:101C900008004860206A801C2062E5E74006F3D512
:101CA0005006F1D5CA68204622F04002CA6084F886
:101CB000413000F079F9F8BD1D28000870B5040026
:101CC00004D094F84100002510B106E0012070BD59
:101CD00084F84050204600F023F8242084F8410086
:101CE0002068C16821F40051C160204600F0AAFEBE
:101CF0002068016921F4904101612068416921F067
:101D00002A0141612068C16841F40051C1606564E5
:101D1000202084F8410084F842006563002070BDF3
:101D20002DE9F04F87B0044614216846FEF79AFB70
:101D3000634A216863480226032700254FF0400BC1
:101D40004FF000694FF4806A914261D15D491031D2
:101D50000A6842F480120A60096801F48011059152
:101D6000016841F004010160016801F0040105917E
:101D7000016841F008010160006802AA00F0080053
:101D80000590F002CDE900064FF0080882E8A001B6
:101D900069464D48FEF7F8FE0420CDE9000602AA88
:101DA000694682E8A0014948FEF7EEFE494E4848E0
:101DB000C8463060C6E90195C6E9035A7561B56148
:101DC000F5613562574630467562FEF729FE08B167
:101DD000FEF7F8FCE663B4633E4E3D486036A8303B
:101DE000C6E903577561B561F5613562756286E8CC
:101DF00001093046FEF714FE08B1FEF7E3FCA663C6
:101E0000002211463520B463FFF724F8352051E055
:101E1000314A914250D12B4914310A6842F01002E4
:101E20000A60096801F010010591016841F00101A3
:101E300001600068029500F0010005904FF4C06059
:101E4000CDE900060720CDE9037069462348FEF777
:101E50009BFE204E2248C0364F463060C6E90195B1
:101E6000C6E9035A7561B561F5613562D046304601
:101E70007562FEF7D5FD08B1FEF7A4FCE663B46316
:101E8000184E1748C6E903587561B561F5613562AA
:101E90007830756286E881083046FEF7C1FD08B1EA
:101EA000FEF790FCA663002211462520B463FEF7DE
:101EB000D1FF2520FEF7C0FF07B0BDE8F08F00007E
:101EC000005000403038024000080240000C024040
:101ED0001060024018020020001001400000024083
:101EE000406402403803002090F84230202B01D09B
:101EF0000220704721B11AB10023036300F028BE0D
:101F000001207047704770472DE9F843044690F868
:101F10004100984616460D46202802D00220BDE812
:101F2000F88385B17EB100206064212084F84100EF
:101F3000FEF722FFA6848146E684A0682027B0F53C
:101F4000805F02D003E00120E9E7206910B12E464E
:101F500000250EE000260CE08021204600F048FE1F
:101F6000A8B9C6B116F8010B21684860E08C401E84
:101F7000E084E08C4B464FF00002CDF80080002852
:101F8000EAD14FF04001204600F032FE40B184F823
:101F900041700320C3E735F8020BC0F30800E3E704
:101FA00084F841700020BAE700680349884202D1F2
:101FB0000249002008707047001401401000002002
:101FC000FEE70000194808B5016841F400110160FE
:101FD000016801F400110091016841F48001016081
:101FE0000068002200F48000009011460B20FEF7EC
:101FF00031FF0B20FEF720FF002211462F20FEF7B5
:1020000029FF2F20FEF718FF002211463A20FEF785
:1020100021FF3A20FEF710FF002211464620FEF76E
:1020200019FFBDE808404620FEF706BF30380240E1
:10203000194808B5016841F080010160016801F0AC
:1020400080010091016841F010010160016801F018
:1020500010010091016841F008010160016801F080
:1020600008010091016841F004010160016801F07C
:1020700004010091016841F001010160016801F073
:1020800001010091016841F002010160006800F067
:102090000200009008BD00003038024010B596B034
:1020A00000240F9410941194129413941C216846E8
:1020B0001494FEF7D7F9202107A8FEF7D3F9344886
:1020C000324901609F21C0E9011444F61F61C0E953
:1020D000031444618461FFF717FA08B1FEF772FB3D
:1020E0004FF480500F900FA92948FFF76FFA08B1FD
:1020F000FEF768FB2648FFF7C1FB08B1FEF762FB5D
:10210000139413A922481494FFF7B6F908B1FEF707
:1021100059FB6020CDE900040294039404940594D3
:10212000002269461A480694FFF742FB08B1FEF701
:1021300049FB042269461648FFF73AFB08B1FEF74F
:1021400041FB082269461248FFF732FB08B1FEF74F
:1021500039FB0C2269460E48FFF72AFB08B1FEF74F
:1021600031FB0794089409944FF400500A94CDE988
:102170000B4007A906480E94FFF754F908B1FEF783
:1021800021FB0348FFF790FA16B010BD0000014094
:102190002000002010B58EB0002407940894099404
:1021A0000A940B941C2168460C94FEF75BF92248B4
:1021B0004FF0804101604F21C0E9011444F61F61D6
:1021C000C0E903148461FFF79FF908B1FEF7FAFA3A
:1021D0004FF48050079007A91748FFF7F7F908B1A7
:1021E000FEF7F0FA1448FFF749FB08B1FEF7EAFAE8
:1021F0000B940BA910480C94FFF73EF908B1FEF7B9
:10220000E1FA6020CDE900040294002269460A4800
:102210000494FFF7CDFA08B1FEF7D4FA0422694618
:102220000548FFF7C5FA08B1FEF7CCFA0248FFF7F8
:102230003BFA0EB010BD00006800002010B58EB053
:1022400000240794089409940A940B941C2168466E
:102250000C94FEF707F92A48284901604F21C0E98C
:10226000011444F61F61C0E903148461FFF74CF9BF
:1022700008B1FEF7A7FA4FF48050079007A920484D
:10228000FFF7A4F908B1FEF79DFA1D48FFF7F6FA2B
:1022900008B1FEF797FA0B940BA919480C94FFF7B5
:1022A000EBF808B1FEF78EFA6020CDE90004029445
:1022B0000022694612480494FFF77AFA08B1FEF743
:1022C00081FA042269460E48FFF772FA08B1FEF758
:1022D00079FA082269460A48FFF76AFA08B1FEF758
:1022E00071FA0C2269460648FFF762FA08B1FEF758
:1022F00069FA0348FFF7D8F90EB010BD000400409A
:10230000B000002010B58AB0002407941C21684654
:102310000894FEF7A7F82248204901604F21C0E940
:10232000011444F61F61C0E903148461FFF7A6FAA3
:1023300008B1FEF747FA079407A919480894FFF770
:102340009BF808B1FEF73EFA6020CDE90004029444
:102350000022694612480494FFF72AFA08B1FEF7F2
:1023600031FA042269460E48FFF722FA08B1FEF757
:1023700029FA082269460A48FFF71AFA08B1FEF757
:1023800021FA0C2269460648FFF712FA08B1FEF757
:1023900019FA0348FFF788F90AB010BD0008004099
:1023A000F800002010B586B000241748009401946E
:1023B0000294039404941349059401609F21C0E999
:1023C000011441F28731C0E903148461FFF79CF8DE
:1023D00008B1FEF7F7F94FF48050009069460A48BB
:1023E000FFF7F4F808B1FEF7EDF9049404A90648E4
:1023F0000594FFF741F8002801D0FEF7E3F906B095
:1024000010BD0000000C0040400100200C4810B539
:102410000A4901604FF4E1314160002181600C22E2
:10242000C160C0E904128161C161FFF747FC002867
:1024300003D0BDE81040FEF7C5B910BD0050004004
:10244000880100200C4810B50A4901604FF4E131C1
:102450004160002181600C22C160C0E904128161E9
:10246000C161FFF72BFC002803D0BDE81040FEF748
:10247000A9B910BD00100140D0010020FEE7FEE721
:1024800070477047FEF77EBC30B593B03021684688
:10249000FDF7E8FF14210CA8FDF7E4FF1D48002517
:1024A000016841F080510160006800F08050119097
:1024B0001948016841F4804101600068022400F479
:1024C0008040119001200090000401908001CDE92E
:1024D00006400C200890A020CDE9090404200B90B0
:1024E0006846FEF7D5FD08B172B6FEE70CA90F20CD
:1024F00081E831004FF4A0500F904FF480501090BD
:1025000005210CA8FEF7D8FC002801D072B6FEE722
:1025100013B030BD403802400070004002480168EE
:1025200041F470010160704788ED00E0F0B5026889
:10253000274B284D284E294F294C4FF0804C98426C
:1025400009D0604507D0A84205D0B04203D0B842B8
:1025500001D0A04204D122F0700E4A6842EA0E0275
:1025600098421BD0604519D0A84217D0B04215D070
:10257000B84213D0A04211D01A4DA8420ED01A4D25
:10258000A8420BD0194DA84208D0194DA84205D039
:10259000184DA84202D0184DA84203D122F440752C
:1025A000CA682A434D6922F080022A438D68C562B9
:1025B0000D688562984201D0A04201D1096901638A
:1025C000016841F004010160012141610260F0BD38
:1025D000000001400004004000080040000C0040E2
:1025E0000004014000400140004401400048014017
:1025F00000180040001C00400020004010B501F011
:102600001F030121046A99408C430462016A9A40C5
:102610001143016210BD10B5846842EA032224F41C
:102620007F440A432243826010BD826822F0700218
:102630000A4342F00701816070470000F0B5036A69
:10264000026A22F00102026242688469124E24F09A
:1026500073050C682C4323F002058B682B430D4D4A
:10266000A84201D0B04205D123F00807CB683B4314
:1026700023F00403A84201D0B04205D14D6922F4F1
:10268000407215438A692A43426084614968416304
:102690000362F0BD0000014000040140F0B5026A91
:1026A000036A23F010030362436884690D6824F40D
:1026B000E64444EA05248D6822F0200242EA05122D
:1026C0000F4D104EA84201D0B04206D1CF6822F083
:1026D000800242EA071222F04002A84201D0B04232
:1026E00007D14D6923F4406343EA85038D6943EACA
:1026F000850343608461496881630262F0BD000024
:102700000000014000040140F0B5026A036A23F4AE
:10271000807303624368C46922F4007224F0730575
:102720000C68124E2C438D6842EA05220E4DA842D9
:1027300001D0B04206D1CF6822F4006242EA0722FB
:1027400022F48062A84201D0B04207D14D6923F43F
:10275000405343EA05138D6943EA05134360C4619E
:102760004968C1630262F0BD0000014000040140FD
:1027700030B5046A026A22F4805202624268C36978
:102780000D6823F4E64343EA05238D6824F40054DE
:1027900044EA0534084DA84202D0084DA84204D1AD
:1027A0004D6922F4804242EA85124260C361496861
:1027B0000164046230BD00000000014000040140DB
:1027C00010B5036A046A24F001040462846924F0E9
:1027D000F00444EA021423F00A020A43846102620C
:1027E00010BD10B5036A046A24F010040462846901
:1027F00023F0A00324F4704444EA023243EA0111B6
:102800008261016210BD000010B500F0ABFBBDE8B5
:1028100010400148FFF712B98801002010B5806B05
:102820000021C185FFF709F910BD70B5846B2068E0
:10283000406994F84110C0F3C0100025212904D14B
:1028400018B1E584204600F08EF82068406994F8BD
:102850004210C0F38010222904D118B1E58520462A
:1028600000F05AF8606C40F0100060642046FFF7FA
:10287000E4F870BD10B50146806B096809684FF037
:102880000002C9052ED4C28501680C3151E8003F11
:1028900023F4807341E80034002CF5D10168143131
:1028A00051E8003F23F0010341E80034002CF5D14A
:1028B0000168143151E8003F23F0400341E800343F
:1028C000002CF5D1202180F84210016B012909D19B
:1028D00001680C3151E8003F23F0100341E8003457
:1028E000002CF5D14263016B012902D0FFF70AFBEE
:1028F00010BD818DFFF768F810BD10B5806B012108
:102900004163016B012902D0FFF7FDFA10BD818DF3
:102910004908FFF759F810BD01680C3151E8002F44
:1029200022F4907241E80023002BF5D101681431A4
:1029300051E8002F22F0010241E80023002BF5D1DD
:10294000016B012909D101680C3151E8002F22F0F7
:10295000100241E80023002BF5D1202180F842101D
:1029600000210163704701680C3151E8002F22F00B
:10297000C00241E80023002BF5D1202180F841104E
:10298000704708B590F84210222901D0022008BDF6
:1029900082684FF480539A4201D1016921B1816A62
:1029A0009A421BD04AB10AE00268816A5268C2F3B7
:1029B00008020A80816A891C08E0026972B1026813
:1029C000526802F07F020A70816A491C8162C18DDF
:1029D000491E0904090CC18503D01BE00268526836
:1029E000F1E70168CA6822F02002CA600168CA687B
:1029F00022F48072CA6001684A6922F001024A61C9
:102A0000202180F8421000214163026B012A03D08B
:102A1000FFF778FA002008BD016301680C3151E826
:102A2000002F22F0100241E80023002BF5D10168AD
:102A30000A68D20602D50A6849680091818DFEF7BE
:102A4000C3FFE7E770B5044600680169E26821F456
:102A50004051114301612169A068E269084361693D
:102A6000114308432168CA6849F20C639A43024340
:102A7000CA6020684169A26921F440711143416133
:102A800031492068884202D03049884202D1FEF79D
:102A9000BDFA01E0FEF7AAFAE269002319216425D4
:102AA0003226B2F5004F626828D0A0FB0101930FD7
:102AB0009200FDF7D9FB0146B0FBF5F06FF018026C
:102AC000504301EB800006EB0010B0FBF5F000F086
:102AD000F002B1FBF5F002EB0012B1FBF5F06FF084
:102AE0001803584301EB800006EB0010B0FBF5F033
:102AF00000F00F0021681044886070BDA0FB010148
:102B000092185B41FDF7B0FB0146B0FBF5F0020106
:102B1000B1FBF5F06FF01803584301EB800006EBB2
:102B2000C000B0FBF5F000F0F80002EB4002B1FB92
:102B3000F5F0584301EB800006EBC000B0FBF5F068
:102B400000F00700D6E7000000100140001401402B
:102B500038B58162044682850020134660642222D3
:102B600084F84220E56B1F4AEA63E56B1E4A2A643B
:102B7000E56B1E4AEA64E26B10650A462168E06B69
:102B8000091DFDF7B7FF30B110206064202084F8E4
:102B90004200012038BD206801684068009020692B
:102BA00048B120680C3050E8001F41F4807140E8C3
:102BB0000012002AF5D12068143050E8001F41F0BF
:102BC000010140E80012002AF5D12068143050E8D5
:102BD000001F41F0400140E80012002AF5D100201A
:102BE00038BD000075280008FB2800082B280008C5
:102BF0002DE9F843984617460D460446089E24E002
:102C0000701C22D0FEF7B8F8A0EB0800B0421AD82A
:102C1000CEB12068C168490717D5802D15D0402D49
:102C200013D00168C94309070FD401680025406823
:102C300000902046FFF770FE0820606484F8405042
:102C40000120BDE8F8830320FBE72068006835EA2F
:102C5000000004D00020B842D2D00020F1E70120CB
:102C6000F9E700000148FEF7E9BE0000D0010020AE
:102C7000FEE70907090E002804DB00F1E02080F8D8
:102C80000014704700F00F0000F1E02080F8141DE0
:102C900070470A4601464FF6FF70AFF3008030B52B
:102CA00041F221040EE011F8013B80EA03200023E9
:102CB000050402D584EA400000E040005B1C80B2BD
:102CC000082BF5DB521E92B2EDD230BD1FB5AA2102
:102CD0008DF8001055218DF8011001218DF802109A
:102CE00011218DF80310010A8DF804108DF80500EC
:102CF000FEF742F8010E8DF80610010C8DF8071052
:102D0000010A8DF808108DF8090000208DF80A00DE
:102D10008DF80B000A210DF10200FFF7BAFF010A3E
:102D20008DF80C108DF80D0032230E2269460248F2
:102D3000FFF7EAF81FBD000088010020F0B589B058
:102D4000102905D02F488168491C816009B0F0BD69
:102D5000DFED2D0A2D4E002242F210734FF07E550A
:102D60004FEA0D0400EB4201098849BA994200D9A3
:102D70001946A1F59851883900EE101A04EB82012A
:102D8000B8EEC01A81EE200A10EE107A81ED000A2A
:102D9000AF4203DDB7EE000A81ED000A10EE107AB3
:102DA000B74203D9BFEE000A81ED000A521C082A7F
:102DB000D8DB9DED000A0120FDF7D2FC9DED010A54
:102DC0000220FDF7CDFC9DED020A0320FDF7C8FCB3
:102DD0009DED030A0420FDF7C3FC9DED040A0520C8
:102DE000FDF7BEFC9DED050A0620FDF7B9FC9DED43
:102DF000060A0720FDF7B4FC9DED070A0820FDF741
:102E0000AFFCA3E79803002000409C45000080BF72
:102E1000FDF7C0FFFFF738FBFFF70AF9FFF7D2F81D
:102E2000FFF73CF9FFF7B6F9FFF708FAFFF76AFA80
:102E3000FFF7B8FAFFF7EAFAFFF704FBFDF752FCD9
:102E400000F048F800F01AF900F0F4F800F0B4F8D7
:102E50000120FDF787FEF7E72DE9F0411B4C064600
:102E60000D46207800282ED1002E2CD0002D2AD0FF
:102E70004FF40070854205D90E440021054661805B
:102E8000A6F500766188DFF84880294481420ED992
:102E900060882844A0F5007087B2608808EB0701BD
:102EA000C21B4046FDF79CFA6088C01B60806188A9
:102EB0002A4608EB01003146FDF74DFA60882844A8
:102EC000608001202070BDE8F08100001400002027
:102ED000B003002010B501202DED028B9FED168A66
:102EE000B0EE480AFDF73CFCB0EE480A0220FDF7C0
:102EF00037FCB0EE480A0320FDF732FCB0EE480A7A
:102F00000420FDF72DFCB0EE480A0520FDF728FC53
:102F1000B0EE480A0620FDF723FCB0EE480A072071
:102F2000FDF71EFCB0EE480ABDEC028B0820BDE8A0
:102F30001040FDF715BC00000000000010B5074C64
:102F40000020608018210648FDF78CFAFDF714FF79
:102F500060604FF49670A06010BD00001400002067
:102F60009803002038B5114C20680168C9061CD5AB
:102F70000168406800902046FEF727FDE06B00687E
:102F80004068C0F180000104090C07D0084C20788B
:102F900020B90848FFF760FF01202070BDE83840E5
:102FA000802204490148FEF79FBF38BD88010020F8
:102FB00014000020B005002070B52DED028BFDF748
:102FC000DBFE1A4C05466068A168281A88422AD997
:102FD00001209FED178AB0EE480AFDF7C1FBB0EE65
:102FE000480A0220FDF7BCFBB0EE480A0320FDF7BB
:102FF000B7FBB0EE480A0420FDF7B2FBB0EE480A7A
:103000000520FDF7ADFBB0EE480A0620FDF7A8FB52
:10301000B0EE480A0720FDF7A3FBB0EE480A0820EF
:10302000FDF79EFB6560BDEC028B70BD14000020B7
:1030300000000000F8B50F4C2078012819D10E4F80
:10304000002600BFADF80060684600F02FF878B1A8
:10305000BDF800000028F5D06188091A0D042D0C78
:1030600004D039182A460448FDF7BAF96580E9E723
:103070002670F8BD14000020B003002010B5FFF743
:103080005DFF074900208022087006490648FEF7C8
:103090002BFF05480068C16841F01001C16010BDF8
:1030A00014000020B0050020880100202DE9FC5FFD
:1030B00007463E49002038804888002840D000203C
:1030C0003B4B07E01C5CAA2C03D11C186478552CE0
:1030D00004D090B24C88421CA242F3D308B138808D
:1030E0004CE048880E282AD3314D4FF0010AA5F153
:1030F0001804A888AA7895F803B040BA0190E88827
:103100002B7A40BA000440EA03206B7A18430090FF
:103110006889012A46BA03D0E068401CE06007E0F5
:1031200006F10E08B8F5007F05D9A068401CA06024
:10313000A7F800A022E089464988414502D2002034
:10314000BDE8FC9F06F10A01A81C89B2FFF7A1FDAA
:103150000146A819808940BA814203D06068401CAA
:103160006060E5E70C355846BBF1010F08D0102828
:103170000FD0E068401CE060A7F800800120DFE786
:10318000FDF7FAFDC9F8040031462846FFF7D6FDE1
:1031900007E0FDF7F1FDC9F80400DDE90010FFF7D5
:1031A00095FD2068401C2060E6E700001400002028
:1031B000B00300204FF04070E1EE100A70470006A7
:1031C00010160006101600000000000000000102AA
:1031D00003040607080900000000010203040000C0
:1031E000003200080000002020000000C401000898
:1031F0002032000820000020700C0000E0010008D0
:103200000100000010000000000000000024F40095
:103210000000000000000000000000002C01000081
:040000050800018965
:00000001FF
